:0200000460009A
:100000004643464200000156000000000103030081
:1000100000000000000000000000000000000000E0
:1000200000000000000000000000000000000000D0
:1000300000000000000000000000000000000000C0
:1000400000000000010408000000000000000000A3
:100050000000200000000000000000000000000080
:100060000000000000000000000000000000000090
:100070000000000000000000000000000000000080
:10008000EB04180A063204260000000000000000FD
:10009000050404240000000000000000000000002F
:1000A0000000000000000000000000000000000050
:1000B0000604000000000000000000000000000036
:1000C0000000000000000000000000000000000030
:1000D00020041808000000000000000000000000DC
:1000E0000000000000000000000000000000000010
:1000F0000000000000000000000000000000000000
:10010000D8041808000000000000000000000000F3
:100110000204180804200000000000000000000095
:1001200000000000000000000000000000000000CF
:10013000600400000000000000000000000000005B
:1001400000000000000000000000000000000000AF
:10015000000000000000000000000000000000009F
:10016000000000000000000000000000000000008F
:10017000000000000000000000000000000000007F
:10018000000000000000000000000000000000006F
:10019000000000000000000000000000000000005F
:1001A000000000000000000000000000000000004F
:1001B000000000000000000000000000000000003F
:1001C000000100000010000001000000000000001D
:1001D000000001000000000000000000000000001E
:1001E000000000000000000000000000000000000F
:1001F00000000000000000000000000000000000FF
:10020000FFFFFFFFFFFFFFFFFFFFFFFFFFFFFFFFFE
:10021000FFFFFFFFFFFFFFFFFFFFFFFFFFFFFFFFEE
:10100000D1002043491600600000000000000000ED
:10101000201000600010006000C4006000000000AC
:101020000000006000D0000000000000FFFFFFFF94
:10103000FFFFFFFFFFFFFFFFFFFFFFFFFFFFFFFFC0
:10104000FFFFFFFFFFFFFFFFFFFFFFFFFFFFFFFFB0
:10105000FFFFFFFFFFFFFFFFFFFFFFFFFFFFFFFFA0
:10106000FFFFFFFFFFFFFFFFFFFFFFFFFFFFFFFF90
:10140000814205D051F8043B40F8043B8242F9D8B0
:10141000704700BF044A05494FF0000342F8043BFF
:101420009142FBD8704700BFC01E0020E02700207B
:101430002DE98848BFF34F8F00BF00BF00BF00BF3A
:1014400000F0D4F9674B0822C3F8542100BF00BF55
:1014500000BF00BF00BF00BF00BF00BF00BF00BF94
:1014600000BF00BF00BF00BF00BF00BF5E4A5F49B2
:101470005F48FFF7C5FF5F4A5F496048FFF7C0FF5D
:101480005F4CFFF7C7FF4FF470004FF0E0210023DF
:101490005C4AC1F8880D44F823200133B02BFAD1FF
:1014A000594B8021594A03F8011B9342FBD14FF05D
:1014B000E0254C4E4FF08039DFF880B1DFF880A195
:1014C0004FF0FF31C5F8084D0027C6F80491C6F863
:1014D00000B1C6F8F490C6F8F0A0D5F8243DDFF8C6
:1014E000648143F4E0234A4AC5F8243DD8F81C300F
:1014F00023F07F0343F04003C8F81C30D8F82430B1
:1015000023F07F0343F04003C8F824309166D1668E
:101510001167516700F072F93E4B3F49A3633F4B9F
:10152000E36363236B610323AF612B613C4BC5F81D
:10153000203DD5F8FC3D43F08073C5F8FC3D394BA8
:101540001A6842F001021A605B680B6000F0DEF975
:10155000C6F804913448C6F800B1C6F8F490C6F84D
:10156000F0A000F075FBD8F86C10304B304A41F415
:101570004051C8F86C101F60C3F80871C3F81871A7
:10158000C3F82871C3F83871936BDB0708D442F6AF
:101590001563284951651365936B43F00103936309
:1015A000234A254C936843F00113936000F012FB2B
:1015B00000F046FB00F0D8F900F01AF92368132B6D
:1015C000FCD900F069FA2368B3F5967FFBD300F0ED
:1015D00013F900F00FF900F037FB00F045FB30BFC6
:1015E000FDE700BF00800D40E87F0000D0230060D1
:1015F00000000000C01E0020BCA30060000000200E
:10160000001C0020D161000000E400E0A0E400E044
:1016100000C00A40A94E000078270020AD4E00000F
:1016200000002020001000E00046C32300400840D6
:1016300000400D400000C0567C2700201B101820E1
:101640000C0D111300C00F40054B4FF42A01054A41
:1016500005485A641864054A99639546FFF7E8FE01
:1016600000C00A40ABAAAAAA0700200000800720F9
:1016700043690A4A03EB011010B4037A084C02EBE9
:101680000313D3E901321460C2681A6003690BB115
:1016900042691A605DF8044B704700BFC009002022
:1016A00061F801004369027E03EB021292F808C060
:1016B0008C451CD01A7AFF2A19D0914210B50446E5
:1016C00016D01A7EFF2A06D00121D3E90023126822
:1016D0001A4201D1217610BD064B0522204603EBAC
:1016E0000C135B681A60FFF7C3FF2176F3E77047BE
:1016F0000021EAE7C009002043690A4A03EB011010
:1017000010B490F82830084C02EB0313D3E90132EF
:101710001460C26A1A60036B0BB1426B1A605DF809
:10172000044B7047C009002061F801004369427E04
:1017300003EB021292F828C08C451ED093F82820A3
:10174000FF2A1AD0914210B5044617D093F83820DA
:10175000FF2A06D00121D3E9002312681A4201D1E1
:10176000617610BD064B0522204603EB0C135B6827
:101770001A60FFF7C1FF6176F3E770470021EAE7DF
:10178000C0090020164942698B6B23F47C0343F4A3
:10179000802370B58B630446124DD2E900130A68AA
:1017A0001A4303690A60022200211A610E4A196174
:1017B0009A6401225A629D624FF43035DD624FF027
:1017C00001159E6C1E6519629D651A61017EFFF709
:1017D0004FFF617E2046BDE87040FFF78DBF00BF20
:1017E00000C00F40B80B05053B372819704700BFF4
:1017F000704700BF704700BF00BF704710B44FF084
:10180000E023002110243148C3F8941DC3F89C4DF7
:101810001124C3F8A00D2E48C3F89C4D1224C3F820
:10182000A00D2C48C3F89C4D2B4AC3F8A00D2B4C9F
:1018300042F015022A48C3F89C4DC3F8A00D294C6C
:101840002948C3F89C4DC3F8A00D284CC3F89C2D23
:101850002748284AC3F8A04DC3F89C0DC3F8A02D13
:1018600002F5A022244C0C322448C3F89C4DC3F846
:10187000A02D234AC3F89C0D224CC3F8A02D02F1E1
:101880004062C3F89C4D2048C3F8A02D0C32C3F829
:101890009C0DC3F8A02D00BF00BF00BF00BF00BF5C
:1018A0000122C3F8942DBFF34F8FBFF36F8FC3F89E
:1018B000501FBFF34F8FBFF36F8FD3F8142D5DF818
:1018C000044B42F44032C3F8142D70473F0000101F
:1018D0002500080709001000E02700201300200061
:1018E0002100020714000020250008130900001041
:1018F0001600202027000B1317000040180000607E
:101900002F000B07190000701A000080F0B4154A70
:1019100040274FF480314FF480564FF400554FF478
:10192000404443F24200136913F0020F0ED113F446
:10193000005F0FD013F4805F0ED0002BF3DA13F4A6
:10194000803F0BD15B060BD5F0BC704794615161B1
:101950009061E8E75561E6E75661E4E79161E2E707
:101960005761E0E700800D403F4A03203F49F3EE16
:10197000095AD2F880304FF0000C9FED3D6A23F0F9
:1019800001039FED3C5A30B4C2F88030C2F8900099
:10199000D1F8E010384DCBB2384C39482B6007EE07
:1019A000903A0B0DC1F30B21F8EEE77A06EE903A70
:1019B00007EE101A334BB8EEC77A2160F8EEE66AEC
:1019C000314937EEC66A37EEC55A76EEC76A77EE0A
:1019D000E57A26EE266AC3ED006A25EE265AD2F88D
:1019E000803067EEA64AC0ED007AC6EE275A274837
:1019F00085EE276AC4EEA76A75EE875AFCEEE55AB3
:101A000036EE076A15EE904ABCEEC66A43EA045306
:101A100076EE877AC2F8803016EE103AD2F890410E
:101A2000FCEEE77A01EA0341214317EE903AC2F84F
:101A30009011C3F30B03D2F890110B431449C2F871
:101A40009031D2F8803043F00203C2F88030114B5D
:101A500080F840C0C1F840314FF0E023012230BC93
:101A6000C3F80821704700BF00810D4000441F40AB
:101A70000000AA420000B44268270020642700202A
:101A80006C270020702700200000FF0F00E400E01A
:101A9000001C002095630000314B40F6617210B5C8
:101AA000C3F8202140F2044400F0C6F82D4A2E4924
:101AB000D2F880302D4843F00303C2F880302C4B1D
:101AC000C1F8604102681A4203D1D1F8A8319A07DF
:101AD0001BD0254A4FF00041244B5963D2F84031C6
:101AE00043F00203C2F84031D2F840319B07FBD4E7
:101AF0004FF400304FF0E0211C4B4FF00042C1F892
:101B00008C0219209A6300F0A7F8184A4FF0804021
:101B1000154C002190630A20164B11604FF420727F
:101B2000C4F8A801184600F09BF84FF48002034661
:101B30004FF4810040F243111860C4F858311A6420
:101B40000D4B0E4AC4F84811C3F804224FF0E022AE
:101B50004FF400310123C2F80C11C4F8403110BD1C
:101B600000800D4000C00F4000002E4000900D404E
:101B7000001C1E0000000020001C00207D650000ED
:101B800008B50E4B1B6E9B0700D4FBBE72B60C4B08
:101B900000200C4AC3F8400103F160430A49A3F551
:101BA0005F2311649D46BFF34F8F4FF40013074826
:101BB000074ADB6902609B68984700BF00441F40EA
:101BC00000002E4000C00A400300200000802020BA
:101BD000000012EB104BA020104AD96E41F44031A6
:101BE00010B4D96640F23764D96E41F44071D966B9
:101BF00054649064936C1B06FCD4094A40F237612C
:101C0000A02351649364936C13F08003FBD1054AC5
:101C100013705DF8044B704700C00F4000400C404B
:101C200000800C40A1270020F8B500BFF8BC08BC1C
:101C30009E467047000000005FF800F0ED6C000069
:101C40005FF800F0DD6000005FF800F0397C000014
:101C50005FF800F02D5900005FF800F01D5C0000F7
:101C60005FF800F0657B00005FF800F0B55E0000F3
:0C1C700005010000C11B0000F55700003A
:101C7C00000800000C00000E00FFFF00FFFF80FFBB
:101C8C00FF80FFFF00000E00000C000008000000A9
:101C9C00F3C0F3C0F3C0F3C0F3C0F3C0F3C0F3C0A0
:101CAC00F3C0F3C0F3C0F3C0F3C0F3C0F3C0F3C090
:101CBC00E000F000F800FC00FE00FF00FF80FFC019
:101CCC00FFC0FF80FF00FE00FC00F800F000E00009
:101CDC003030303030FC783080C00F4000000003D2
:101CEC001900000010000000E8841F4001000000F3
:101CFC00FF000000FF0000000000000000000000DA
:101D0C001800000010000000E4841F4001000000D7
:101D1C00FF000000FF0000000000000000000000B9
:101D2C001F0000007133000070C00F40000C000059
:101D3C001100000011000000E0841F4002000000B0
:101D4C002400000012000000E0841F40010000008D
:101D5C001000000011000000DC841F400200000095
:101D6C002500000012000000DC841F400100000070
:101D7C001E0000006533000070C00F40C000000062
:101D8C001200000013000000D0841F40010000006E
:101D9C00FF000000FF000000000000000000000039
:101DAC001300000013000000CC841F400100000051
:101DBC00FF000000FF000000000000000000000019
:101DCC001C000000593300000080C0E0F0F8FCFE5D
:101DDC00000103070F1F3F7F00000000000180007F
:101DEC000000000000000000038000000000000064
:101DFC0000000007C000000000000000000007C049
:101E0C000000000000000000000FC00000000000F7
:101E1C00000000001FE00000000000000000001F98
:101E2C00E00000000000000000003FE000000000A7
:101E3C0000000000003FF000000000000000000067
:101E4C007FF0000000000000001FF87FF000000091
:101E5C00000000003FFE7FF0000000000000003F8B
:101E6C00FF7FF0000000000000001FFFFBE00000FF
:101E7C0000000000000FFFF9FFC000000000000090
:101E8C000FFFF9FFF800000000000007FFF1FFFF53
:101E9C0000000000000003FC73FFFF800000000046
:101EAC000001FE3FFFFF80000000000000FF1E0F3E
:101EBC00FF000000000000007FFE1FFC000000007F
:101ECC000000003FFFFFF8000000000000000FDFE3
:101EDC00FFE0000000000000001F19FFC000000020
:101EEC00000000003F3CFF00000000000000007EEE
:101EFC007CF800000000000000007FFE7C00000069
:101F0C000000000000FFFFFC0000000000000000CB
:101F1C00FFFFFE0000000000000000FFFFFE0000BD
:101F2C00000000000001FFEFFE00000000000000B8
:101F3C0001FFCFFE0000000000000003FF07FE00C1
:101F4C0000000000000003FC07FE00000000000081
:101F5C000003F003FE00000000000000018000FE02
:101F6C00000000000000000000007E0000000000E7
:101F7C0000000000003E0000000000000000000017
:101F8C000C000000000000078000FC000003C000F3
:101F9C000000078001FC000003C000000007800166
:101FAC00FC000003C0000000078001E00000001EE0
:101FBC00000000078001E00000001E007FE3F79F97
:101FCC00F9FDE7787BDFC0FFF7FFBFFDFDFF787BF6
:101FDC00DFC0FFF7FFBFFDFDFF787BDFC0F0F787A9
:101FEC00BC3DE1FF787BDE00F0F787BC3DE1F0788B
:101FFC007BDE0000F787803DE1E0787BDE007FF739
:10200C00879FFDE1E0787BDE00FFF787BFFDE1E015
:10201C00787BDE00F0F787BC3DE1E0787BDE00F0FA
:10202C00F787BC3DE1E0787BDE00F0F787BC3DE153
:10203C00E0787BDE00FFF7FFBFFDE1E07FFBDFC058
:10204C00FFF7FFBFFDE1E07FFBDFC07CF3F39F3DBB
:10205C00E1E03E7BCFC0000000000000000000006B
:10206C0000FFFFFFFFFFFFFFFFFFFFC0FFFFFFFFB2
:10207C00FD68DB111A31C0FFFFFFFFFD2B5AFB6A15
:10208C00EFC0FFFFFFFFFD4B5B3B1A33C0FFFFFFB1
:10209C00FFFD6B5BDB6AFDC0000060000000000010
:1020AC00000000000000000000E000000000000044
:1020BC000000000000000001E00000000000000033
:1020CC0000000000000001F0000000000000000013
:1020DC00000000000003F000000000000000000001
:1020EC000000000007F000000000000000000000ED
:1020FC0000000007F80000000000000000000000D5
:10210C0000000FF800000003C0007E000001E0009A
:10211C007F0FF800000003C000FE000001E000FF8C
:10212C00EFF800000003C000FE000001E000FFFF1C
:10213C00F800000003C000F00000000F007FFE7FDD
:10214C00C0000003C000F00000000F003FFE7FF84D
:10215C003FF1FBCFFCFEF3BC3DEFE01FFE7FFF7FAA
:10216C00FBFFDFFEFEFFBC3DEFE01FC6FFFF7FFB6A
:10217C00FFDFFEFEFFBC3DEFE00FE3C7FE787BC345
:10218C00DE1EF0FFBC3DEF0007FF87FC787BC3DE53
:10219C001EF0F83C3DEF0001FFFFF0007BC3C01EBA
:1021AC00F0F03C3DEF0001F37FE03FFBC3CFFEF0CE
:1021BC00F03C3DEF0003E33F807FFBC3DFFEF0F01C
:1021CC003C3DEF0007E73C00787BC3DE1EF0F03CA3
:1021DC003DEF0007FFBE00787BC3DE1EF0F03C3DF8
:1021EC00EF0007FFFE00787BC3DE1EF0F03C3DEFF6
:1021FC00000FFFFE007FFBFFDFFEF0F03FFDEFE086
:10220C000FFFFF007FFBFFDFFEF0F03FFDEFE00F65
:10221C00F9FF003E79F9CF9EF0F01F3DE7E01FF18A
:10222C00FF0000000000000000000000001F80FF05
:10223C00007FFFFFFFFFFFFFFFFFFFE01C007F00A1
:10224C007FFFFFFFFEB46D888D18E000001F007F3C
:10225C00FFFFFFFE95AD7DB577E000000F007FFF1F
:10226C00FFFFFEA5AD9D8D19E0000006007FFFFF6E
:10227C00FFFEB5ADEDB57EE0AED580A8D300408DA8
:10228C002000A1C8DB40A4A62EAF00002200FF2135
:10229C00000000002600000000FF2F0027000000B7
:1022AC0000FF2F00A300000029000000012F0000F8
:1022BC00A30000002A000000012F000016035500A7
:1022CC005300420020005300650072006900610059
:1022DC006C00000018035400650065006E0073006C
:1022EC0079006400750069006E006F000403090436
:1022FC0009026200030100C032080B000202020155
:10230C00000904000001020201000524001001056F
:10231C00240101010424020605240600010705829C
:10232C000310001009040100020A00000007050355
:10233C00024000000705840240000009040200026C
:10234C00FF6AFF00070581024000010705010240FA
:10235C000001000009026200030100C032080B00FA
:10236C00020202010009040000010202010005241E
:10237C0000100105240101010424020605240600B5
:10238C00010705820310000509040100020A000080
:10239C000007050302000200070584020002000981
:1023AC0004020002FF6AC700070581020002010750
:1023BC0005010200020100000A060002EF020140C2
:0423CC00010000000C
:1023D00000000000000000000000000000000000FD
:1023E00000000000000000000000000000000000ED
:1023F000F8B54FF084439D695A6915400DD0254FBB
:1024000001269D6195FAA5F4B4FA84F457F82430B6
:1024100006FA04F49847A543F4D11F4B9D695A6905
:1024200015400DD01D4F01269D6195FAA5F4B4FA13
:1024300084F457F8243006FA04F49847A543F4D1FD
:10244000174B9D695A6915400DD0164F01269D61A5
:1024500095FAA5F4B4FA84F457F8243006FA04F493
:102460009847A543F4D1104B9D695A6915400DD08A
:102470000E4F01269D6195FAA5F4B4FA84F457F83D
:10248000243006FA04F49847A543F4D1BFF34F8FE4
:10249000F8BD00BF5417002000400042D4170020B0
:1024A000008000425418002000C00042D4180020D0
:1024B0000548064B1B1AD90F01EBA301491002D0A6
:1024C000034B03B118477047C01E0020C01E0020F8
:1024D0000000000008B5054B1BB105490548AFF3E6
:1024E0000080BDE80840FFF7E3BF00BF0000000028
:1024F0001027002000D00060036818470B680360B5
:10250000704700BF0B680360704700BF704700BF93
:1025100010B5044605F01EFB204610BDC8B2D1B26E
:1025200005F0F4BDC8B2D1B205F0B4BDC8B208B56B
:1025300005F0DAFD08BD00BF214B1A68D2E9001092
:10254000D3680968006810B41842946801EA04016D
:102550002ED0137C03F00303D9B943F00803990884
:10256000013B11740D2B0BD8DFE803F00D071C079E
:102570000A160D0D160A071C070D5369013B53611E
:102580005DF8044B704753695DF8044B01335361A8
:10259000704743F00403E0E753695DF8044B023BE6
:1025A0005361704753695DF8044B023353617047C0
:1025B000137C03F003030029D1D043F00403CEE7DA
:1025C00000220020214B5A68D2E90010D368096824
:1025D000006810B41842946801EA04012ED0137CFC
:1025E00003F00303D9B943F008039908013B1174C0
:1025F0000D2B0BD8DFE803F00D071C070A160D0D95
:10260000160A071C070D5369013B53615DF8044B23
:10261000704753695DF8044B01335361704743F0D1
:102620000403E0E753695DF8044B023B53617047D4
:1026300053695DF8044B023353617047137C03F018
:1026400003030029D1D043F00403CEE70022002089
:10265000214B9A68D2E90010D3680968006810B469
:102660001842946801EA04012ED0137C03F003039E
:10267000D9B943F008039908013B11740D2B0BD80D
:10268000DFE803F00D071C070A160D0D160A071CDC
:10269000070D5369013B53615DF8044B7047536963
:1026A0005DF8044B01335361704743F00403E0E7E6
:1026B00053695DF8044B023B5361704753695DF801
:1026C000044B023353617047137C03F0030300296A
:1026D000D1D043F00403CEE700220020214BDA687A
:1026E000D2E90010D3680968006810B418429468F1
:1026F00001EA04012ED0137C03F00303D9B943F09F
:1027000008039908013B11740D2B0BD8DFE803F087
:102710000D071C070A160D0D160A071C070D536935
:10272000013B53615DF8044B704753695DF8044BFE
:1027300001335361704743F00403E0E753695DF8E8
:10274000044B023B5361704753695DF8044B0233FD
:1027500053617047137C03F003030029D1D043F089
:102760000403CEE700220020214B1A69D2E90010B1
:10277000D3680968006810B41842946801EA04013B
:102780002ED0137C03F00303D9B943F00803990852
:10279000013B11740D2B0BD8DFE803F00D071C076C
:1027A0000A160D0D160A071C070D5369013B5361EC
:1027B0005DF8044B704753695DF8044B0133536176
:1027C000704743F00403E0E753695DF8044B023BB4
:1027D0005361704753695DF8044B0233536170478E
:1027E000137C03F003030029D1D043F00403CEE7A8
:1027F00000220020214B5A69D2E90010D3680968F1
:10280000006810B41842946801EA04012ED0137CC9
:1028100003F00303D9B943F008039908013B11748D
:102820000D2B0BD8DFE803F00D071C070A160D0D62
:10283000160A071C070D5369013B53615DF8044BF1
:10284000704753695DF8044B01335361704743F09F
:102850000403E0E753695DF8044B023B53617047A2
:1028600053695DF8044B023353617047137C03F0E6
:1028700003030029D1D043F00403CEE70022002057
:10288000214B9A69D2E90010D3680968006810B436
:102890001842946801EA04012ED0137C03F003036C
:1028A000D9B943F008039908013B11740D2B0BD8DB
:1028B000DFE803F00D071C070A160D0D160A071CAA
:1028C000070D5369013B53615DF8044B7047536931
:1028D0005DF8044B01335361704743F00403E0E7B4
:1028E00053695DF8044B023B5361704753695DF8CF
:1028F000044B023353617047137C03F00303002938
:10290000D1D043F00403CEE700220020214BDA6946
:10291000D2E90010D3680968006810B418429468BE
:1029200001EA04012ED0137C03F00303D9B943F06C
:1029300008039908013B11740D2B0BD8DFE803F055
:102940000D071C070A160D0D160A071C070D536903
:10295000013B53615DF8044B704753695DF8044BCC
:1029600001335361704743F00403E0E753695DF8B6
:10297000044B023B5361704753695DF8044B0233CB
:1029800053617047137C03F003030029D1D043F057
:102990000403CEE700220020214B1A6AD2E900107E
:1029A000D3680968006810B41842946801EA040109
:1029B0002ED0137C03F00303D9B943F00803990820
:1029C000013B11740D2B0BD8DFE803F00D071C073A
:1029D0000A160D0D160A071C070D5369013B5361BA
:1029E0005DF8044B704753695DF8044B0133536144
:1029F000704743F00403E0E753695DF8044B023B82
:102A00005361704753695DF8044B0233536170475B
:102A1000137C03F003030029D1D043F00403CEE775
:102A200000220020214B5A6AD2E90010D3680968BD
:102A3000006810B41842946801EA04012ED0137C97
:102A400003F00303D9B943F008039908013B11745B
:102A50000D2B0BD8DFE803F00D071C070A160D0D30
:102A6000160A071C070D5369013B53615DF8044BBF
:102A7000704753695DF8044B01335361704743F06D
:102A80000403E0E753695DF8044B023B5361704770
:102A900053695DF8044B023353617047137C03F0B4
:102AA00003030029D1D043F00403CEE70022002025
:102AB000214B9A6AD2E90010D3680968006810B403
:102AC0001842946801EA04012ED0137C03F003033A
:102AD000D9B943F008039908013B11740D2B0BD8A9
:102AE000DFE803F00D071C070A160D0D160A071C78
:102AF000070D5369013B53615DF8044B70475369FF
:102B00005DF8044B01335361704743F00403E0E781
:102B100053695DF8044B023B5361704753695DF89C
:102B2000044B023353617047137C03F00303002905
:102B3000D1D043F00403CEE700220020214BDA6A13
:102B4000D2E90010D3680968006810B4184294688C
:102B500001EA04012ED0137C03F00303D9B943F03A
:102B600008039908013B11740D2B0BD8DFE803F023
:102B70000D071C070A160D0D160A071C070D5369D1
:102B8000013B53615DF8044B704753695DF8044B9A
:102B900001335361704743F00403E0E753695DF884
:102BA000044B023B5361704753695DF8044B023399
:102BB00053617047137C03F003030029D1D043F025
:102BC0000403CEE700220020214B1A6BD2E900104B
:102BD000D3680968006810B41842946801EA0401D7
:102BE0002ED0137C03F00303D9B943F008039908EE
:102BF000013B11740D2B0BD8DFE803F00D071C0708
:102C00000A160D0D160A071C070D5369013B536187
:102C10005DF8044B704753695DF8044B0133536111
:102C2000704743F00403E0E753695DF8044B023B4F
:102C30005361704753695DF8044B02335361704729
:102C4000137C03F003030029D1D043F00403CEE743
:102C500000220020214B5A6BD2E90010D36809688A
:102C6000006810B41842946801EA04012ED0137C65
:102C700003F00303D9B943F008039908013B117429
:102C80000D2B0BD8DFE803F00D071C070A160D0DFE
:102C9000160A071C070D5369013B53615DF8044B8D
:102CA000704753695DF8044B01335361704743F03B
:102CB0000403E0E753695DF8044B023B536170473E
:102CC00053695DF8044B023353617047137C03F082
:102CD00003030029D1D043F00403CEE700220020F3
:102CE000214B9A6BD2E90010D3680968006810B4D0
:102CF0001842946801EA04012ED0137C03F0030308
:102D0000D9B943F008039908013B11740D2B0BD876
:102D1000DFE803F00D071C070A160D0D160A071C45
:102D2000070D5369013B53615DF8044B70475369CC
:102D30005DF8044B01335361704743F00403E0E74F
:102D400053695DF8044B023B5361704753695DF86A
:102D5000044B023353617047137C03F003030029D3
:102D6000D1D043F00403CEE700220020214BDA6BE0
:102D7000D2E90010D3680968006810B4184294685A
:102D800001EA04012ED0137C03F00303D9B943F008
:102D900008039908013B11740D2B0BD8DFE803F0F1
:102DA0000D071C070A160D0D160A071C070D53699F
:102DB000013B53615DF8044B704753695DF8044B68
:102DC00001335361704743F00403E0E753695DF852
:102DD000044B023B5361704753695DF8044B023367
:102DE00053617047137C03F003030029D1D043F0F3
:102DF0000403CEE700220020214B1A6CD2E9001018
:102E0000D3680968006810B41842946801EA0401A4
:102E10002ED0137C03F00303D9B943F008039908BB
:102E2000013B11740D2B0BD8DFE803F00D071C07D5
:102E30000A160D0D160A071C070D5369013B536155
:102E40005DF8044B704753695DF8044B01335361DF
:102E5000704743F00403E0E753695DF8044B023B1D
:102E60005361704753695DF8044B023353617047F7
:102E7000137C03F003030029D1D043F00403CEE711
:102E800000220020214B5A6CD2E90010D368096857
:102E9000006810B41842946801EA04012ED0137C33
:102EA00003F00303D9B943F008039908013B1174F7
:102EB0000D2B0BD8DFE803F00D071C070A160D0DCC
:102EC000160A071C070D5369013B53615DF8044B5B
:102ED000704753695DF8044B01335361704743F009
:102EE0000403E0E753695DF8044B023B536170470C
:102EF00053695DF8044B023353617047137C03F050
:102F000003030029D1D043F00403CEE700220020C0
:102F1000214B9A6CD2E90010D3680968006810B49C
:102F20001842946801EA04012ED0137C03F00303D5
:102F3000D9B943F008039908013B11740D2B0BD844
:102F4000DFE803F00D071C070A160D0D160A071C13
:102F5000070D5369013B53615DF8044B704753699A
:102F60005DF8044B01335361704743F00403E0E71D
:102F700053695DF8044B023B5361704753695DF838
:102F8000044B023353617047137C03F003030029A1
:102F9000D1D043F00403CEE700220020214BDA6CAD
:102FA000D2E90010D3680968006810B41842946828
:102FB00001EA04012ED0137C03F00303D9B943F0D6
:102FC00008039908013B11740D2B0BD8DFE803F0BF
:102FD0000D071C070A160D0D160A071C070D53696D
:102FE000013B53615DF8044B704753695DF8044B36
:102FF00001335361704743F00403E0E753695DF820
:10300000044B023B5361704753695DF8044B023334
:1030100053617047137C03F003030029D1D043F0C0
:103020000403CEE700220020214B1A6DD2E90010E4
:10303000D3680968006810B41842946801EA040172
:103040002ED0137C03F00303D9B943F00803990889
:10305000013B11740D2B0BD8DFE803F00D071C07A3
:103060000A160D0D160A071C070D5369013B536123
:103070005DF8044B704753695DF8044B01335361AD
:10308000704743F00403E0E753695DF8044B023BEB
:103090005361704753695DF8044B023353617047C5
:1030A000137C03F003030029D1D043F00403CEE7DF
:1030B00000220020214B5A6DD2E90010D368096824
:1030C000006810B41842946801EA04012ED0137C01
:1030D00003F00303D9B943F008039908013B1174C5
:1030E0000D2B0BD8DFE803F00D071C070A160D0D9A
:1030F000160A071C070D5369013B53615DF8044B29
:10310000704753695DF8044B01335361704743F0D6
:103110000403E0E753695DF8044B023B53617047D9
:1031200053695DF8044B023353617047137C03F01D
:1031300003030029D1D043F00403CEE7002200208E
:10314000214B9A6DD2E90010D3680968006810B469
:103150001842946801EA04012ED0137C03F00303A3
:10316000D9B943F008039908013B11740D2B0BD812
:10317000DFE803F00D071C070A160D0D160A071CE1
:10318000070D5369013B53615DF8044B7047536968
:103190005DF8044B01335361704743F00403E0E7EB
:1031A00053695DF8044B023B5361704753695DF806
:1031B000044B023353617047137C03F0030300296F
:1031C000D1D043F00403CEE700220020214BDA6D7A
:1031D000D2E90010D3680968006810B418429468F6
:1031E00001EA04012ED0137C03F00303D9B943F0A4
:1031F00008039908013B11740D2B0BD8DFE803F08D
:103200000D071C070A160D0D160A071C070D53693A
:10321000013B53615DF8044B704753695DF8044B03
:1032200001335361704743F00403E0E753695DF8ED
:10323000044B023B5361704753695DF8044B023302
:1032400053617047137C03F003030029D1D043F08E
:103250000403CEE700220020214B1A6ED2E90010B1
:10326000D3680968006810B41842946801EA040140
:103270002ED0137C03F00303D9B943F00803990857
:10328000013B11740D2B0BD8DFE803F00D071C0771
:103290000A160D0D160A071C070D5369013B5361F1
:1032A0005DF8044B704753695DF8044B013353617B
:1032B000704743F00403E0E753695DF8044B023BB9
:1032C0005361704753695DF8044B02335361704793
:1032D000137C03F003030029D1D043F00403CEE7AD
:1032E00000220020214B5A6ED2E90010D3680968F1
:1032F000006810B41842946801EA04012ED0137CCF
:1033000003F00303D9B943F008039908013B117492
:103310000D2B0BD8DFE803F00D071C070A160D0D67
:10332000160A071C070D5369013B53615DF8044BF6
:10333000704753695DF8044B01335361704743F0A4
:103340000403E0E753695DF8044B023B53617047A7
:1033500053695DF8044B023353617047137C03F0EB
:1033600003030029D1D043F00403CEE7002200205C
:10337000214B9A6ED2E90010D3680968006810B436
:103380001842946801EA04012ED0137C03F0030371
:10339000D9B943F008039908013B11740D2B0BD8E0
:1033A000DFE803F00D071C070A160D0D160A071CAF
:1033B000070D5369013B53615DF8044B7047536936
:1033C0005DF8044B01335361704743F00403E0E7B9
:1033D00053695DF8044B023B5361704753695DF8D4
:1033E000044B023353617047137C03F0030300293D
:1033F000D1D043F00403CEE700220020214BDA6E47
:10340000D2E90010D3680968006810B418429468C3
:1034100001EA04012ED0137C03F00303D9B943F071
:1034200008039908013B11740D2B0BD8DFE803F05A
:103430000D071C070A160D0D160A071C070D536908
:10344000013B53615DF8044B704753695DF8044BD1
:1034500001335361704743F00403E0E753695DF8BB
:10346000044B023B5361704753695DF8044B0233D0
:1034700053617047137C03F003030029D1D043F05C
:103480000403CEE700220020214B1A6FD2E900107E
:10349000D3680968006810B41842946801EA04010E
:1034A0002ED0137C03F00303D9B943F00803990825
:1034B000013B11740D2B0BD8DFE803F00D071C073F
:1034C0000A160D0D160A071C070D5369013B5361BF
:1034D0005DF8044B704753695DF8044B0133536149
:1034E000704743F00403E0E753695DF8044B023B87
:1034F0005361704753695DF8044B02335361704761
:10350000137C03F003030029D1D043F00403CEE77A
:1035100000220020214B5A6FD2E90010D3680968BD
:10352000006810B41842946801EA04012ED0137C9C
:1035300003F00303D9B943F008039908013B117460
:103540000D2B0BD8DFE803F00D071C070A160D0D35
:10355000160A071C070D5369013B53615DF8044BC4
:10356000704753695DF8044B01335361704743F072
:103570000403E0E753695DF8044B023B5361704775
:1035800053695DF8044B023353617047137C03F0B9
:1035900003030029D1D043F00403CEE7002200202A
:1035A000214B9A6FD2E90010D3680968006810B403
:1035B0001842946801EA04012ED0137C03F003033F
:1035C000D9B943F008039908013B11740D2B0BD8AE
:1035D000DFE803F00D071C070A160D0D160A071C7D
:1035E000070D5369013B53615DF8044B7047536904
:1035F0005DF8044B01335361704743F00403E0E787
:1036000053695DF8044B023B5361704753695DF8A1
:10361000044B023353617047137C03F0030300290A
:10362000D1D043F00403CEE700220020214BDA6F13
:10363000D2E90010D3680968006810B41842946891
:1036400001EA04012ED0137C03F00303D9B943F03F
:1036500008039908013B11740D2B0BD8DFE803F028
:103660000D071C070A160D0D160A071C070D5369D6
:10367000013B53615DF8044B704753695DF8044B9F
:1036800001335361704743F00403E0E753695DF889
:10369000044B023B5361704753695DF8044B02339E
:1036A00053617047137C03F003030029D1D043F02A
:1036B0000403CEE700220020224BD3F88020D2E979
:1036C0000010D3680968006810B41842946801EAD1
:1036D00004012ED0137C03F00303D9B943F008038F
:1036E0009908013B11740D2B0BD8DFE803F00D078F
:1036F0001C070A160D0D160A071C070D5369013B1E
:1037000053615DF8044B704753695DF8044B013316
:103710005361704743F00403E0E753695DF8044BDD
:10372000023B5361704753695DF8044B02335361A8
:103730007047137C03F003030029D1D043F0040346
:10374000CEE700BF00220020224BD3F88420D2E92C
:103750000010D3680968006810B41842946801EA40
:1037600004012ED0137C03F00303D9B943F00803FE
:103770009908013B11740D2B0BD8DFE803F00D07FE
:103780001C070A160D0D160A071C070D5369013B8D
:1037900053615DF8044B704753695DF8044B013386
:1037A0005361704743F00403E0E753695DF8044B4D
:1037B000023B5361704753695DF8044B0233536118
:1037C0007047137C03F003030029D1D043F00403B6
:1037D000CEE700BF00220020224BD3F88820D2E998
:1037E0000010D3680968006810B41842946801EAB0
:1037F00004012ED0137C03F00303D9B943F008036E
:103800009908013B11740D2B0BD8DFE803F00D076D
:103810001C070A160D0D160A071C070D5369013BFC
:1038200053615DF8044B704753695DF8044B0133F5
:103830005361704743F00403E0E753695DF8044BBC
:10384000023B5361704753695DF8044B0233536187
:103850007047137C03F003030029D1D043F0040325
:10386000CEE700BF00220020224BD3F88C20D2E903
:103870000010D3680968006810B41842946801EA1F
:1038800004012ED0137C03F00303D9B943F00803DD
:103890009908013B11740D2B0BD8DFE803F00D07DD
:1038A0001C070A160D0D160A071C070D5369013B6C
:1038B00053615DF8044B704753695DF8044B013365
:1038C0005361704743F00403E0E753695DF8044B2C
:1038D000023B5361704753695DF8044B02335361F7
:1038E0007047137C03F003030029D1D043F0040395
:1038F000CEE700BF00220020224BD3F89020D2E96F
:103900000010D3680968006810B41842946801EA8E
:1039100004012ED0137C03F00303D9B943F008034C
:103920009908013B11740D2B0BD8DFE803F00D074C
:103930001C070A160D0D160A071C070D5369013BDB
:1039400053615DF8044B704753695DF8044B0133D4
:103950005361704743F00403E0E753695DF8044B9B
:10396000023B5361704753695DF8044B0233536166
:103970007047137C03F003030029D1D043F0040304
:10398000CEE700BF00220020224BD3F89420D2E9DA
:103990000010D3680968006810B41842946801EAFE
:1039A00004012ED0137C03F00303D9B943F00803BC
:1039B0009908013B11740D2B0BD8DFE803F00D07BC
:1039C0001C070A160D0D160A071C070D5369013B4B
:1039D00053615DF8044B704753695DF8044B013344
:1039E0005361704743F00403E0E753695DF8044B0B
:1039F000023B5361704753695DF8044B02335361D6
:103A00007047137C03F003030029D1D043F0040373
:103A1000CEE700BF00220020224BD3F89820D2E945
:103A20000010D3680968006810B41842946801EA6D
:103A300004012ED0137C03F00303D9B943F008032B
:103A40009908013B11740D2B0BD8DFE803F00D072B
:103A50001C070A160D0D160A071C070D5369013BBA
:103A600053615DF8044B704753695DF8044B0133B3
:103A70005361704743F00403E0E753695DF8044B7A
:103A8000023B5361704753695DF8044B0233536145
:103A90007047137C03F003030029D1D043F00403E3
:103AA000CEE700BF00220020224BD3F89C20D2E9B1
:103AB0000010D3680968006810B41842946801EADD
:103AC00004012ED0137C03F00303D9B943F008039B
:103AD0009908013B11740D2B0BD8DFE803F00D079B
:103AE0001C070A160D0D160A071C070D5369013B2A
:103AF00053615DF8044B704753695DF8044B013323
:103B00005361704743F00403E0E753695DF8044BE9
:103B1000023B5361704753695DF8044B02335361B4
:103B20007047137C03F003030029D1D043F0040352
:103B3000CEE700BF0022002070B51A4D044695E87C
:103B40000F0084E80F00002205F1100304F1180CA7
:103B5000251F226104F10C0622750FCB8CE80F00A3
:103B60001E220C2104F1280003F0FAF91E2221790B
:103B700004F1380003F0F4F91E22217A04F1480020
:103B800003F0EEF91E22217B04F1580003F0E8F95E
:103B900055F8040F0221C0B204F0B8FAB542F7D1CB
:103BA000204670BD800200200B4610B5272800F289
:103BB0009B81DFE810F0900186017D0174016B01AB
:103BC00062015901500147013E0135012C012301D9
:103BD0001A0111010801FF00F600ED00E400DB000E
:103BE000D200C900C000B700AE00A5009C00930041
:103BF0008A00810078006E0064005A005000460080
:103C00003C0032002800B94C0422B9492720C4F8EE
:103C10009C3004F0B5FA012010BDB44C0422B54923
:103C20002620C4F8983004F0ABFA012010BDAF4C48
:103C30000422B1492520C4F8943004F0A1FA0120EF
:103C400010BDAA4C0422AD492420C4F8903004F0E1
:103C500097FA012010BDA54C0422A9492320C4F8DD
:103C60008C3004F08DFA012010BDA04C0422A5492F
:103C70002220C4F8883004F083FA012010BD9B4C48
:103C80000422A1492120C4F8843004F079FA0120EB
:103C900010BD964C04229D492020C4F8803004F0C9
:103CA0006FFA012010BD914C042299491F20E3674F
:103CB00004F066FA012010BD8C4C042295491E20A8
:103CC000A36704F05DFA012010BD884C04229249DC
:103CD0001D20636704F054FA012010BD834C0422B8
:103CE0008E491C20236704F04BFA012010BD7F4C45
:103CF00004228B491B20E36604F042FA012010BD28
:103D00007A4C042287491A20A36604F039FA01206C
:103D100010BD764C042284491920636604F030FA01
:103D2000012010BD714C042280491820236604F044
:103D300027FA012010BD6D4C04227D491720E36550
:103D400004F01EFA012010BD684C042279491620A7
:103D5000A36504F015FA012010BD644C04227649D5
:103D60001520636504F00CFA012010BD5F4C04229D
:103D700072491420236504F003FA012010BD5B4C46
:103D800004226F491320E36404F0FAF9012010BD06
:103D9000564C04226B491220A36404F0F1F901206F
:103DA00010BD524C042268491120636404F0E8F904
:103DB000012010BD4D4C042264491020236404F0FE
:103DC000DFF9012010BD494C042261490F20E36353
:103DD00004F0D6F9012010BD444C04225D490E20A8
:103DE000A36304F0CDF9012010BD404C04225A49D0
:103DF0000D20636304F0C4F9012010BD3B4C042284
:103E000056490C20236304F0BBF9012010BD374C48
:103E1000042253490B20E36204F0B2F9012010BDE3
:103E2000324C04224F490A20A36204F0A9F9012070
:103E300010BD2E4C04224C490920636204F0A0F905
:103E4000012010BD294C042248490820236204F0B7
:103E500097F9012010BD254C042245490720E36154
:103E600004F08EF9012010BD204C042241490620A7
:103E7000A36104F085F9012010BD1C4C04223E49C9
:103E80000520636104F07CF9012010BD0422174C69
:103E90003A491046236104F073F9012010BD134C18
:103EA000042237490320E36004F06AF9012010BDC1
:103EB0000E4C042233490220A36004F061F9012072
:103EC00010BD0446094804222F494360012004F034
:103ED00057F9204610BD054C04222C4900202360D0
:103EE00004F04EF9012010BD002010BD002200207A
:103EF000D916000049160000B91500002915000068
:103F0000991400000914000079130000E912000060
:103F10005D120000D111000045110000B910000031
:103F20002D100000A10F0000150F0000890E0000E9
:103F3000FD0D0000710D0000E50C0000590C0000A3
:103F4000CD0B0000410B0000B50A0000290A00005B
:103F50009D0900001109000085080000F907000014
:103F60006D070000E106000055060000C9050000CD
:103F70003D050000B1040000250400009903000085
:103F80000D03000081020000F5010000690100003E
:103F9000F0B5384885B038494FF0FF34374B4022F0
:103FA0000094374CCDE901108021364802F0CEFB59
:103FB000354A3649334805F0E5FC3548FFF7BCFD86
:103FC0000221152004F0A2F80221162004F09EF828
:103FD000304B31494FF4FA6ED3F86C512F4AD3F875
:103FE00050C1D3E957672E4BE560C4F800C0C4E95F
:103FF000017648681268A3FB02320023920C6361C9
:104000000EFB02F24B681B1A9A42FBD8DCF8003018
:1040100015203A681E421A4914BF01230023154295
:1040200018BF43F002032374FFF7BEFD0346144993
:1040300016202376FFF7B8FD227E034604201344A2
:104040002376184C04F0C0F901230090022204608A
:104050001421154802F0D0FF0B4A1449144805F00A
:1040600091FC094A1149134805B0BDE8F04005F03C
:1040700089BC00BFA0860100801A0600D80E00206F
:10408000802600201426002004130020D5430000C1
:10409000A8250020C0090020001000E0040E002028
:1040A00083DE1B43AC0800209C2600204101000059
:1040B0001C17002024170020F0B5604E83B0604C20
:1040C0003578002D4BD00025142712220A236E21AB
:1040D0002046CDE9007501F06FFC5A4B02212046C5
:1040E000236102F0C1F801225749204603F0C4FDC4
:1040F0006423322229462046CDE9007501F05CFC9C
:104100003378002B40F083804B20322300214F4A2C
:10411000012663820B46208212F8010F06FA03F58E
:10412000013300B12943042BF6D10029444808BFCC
:10413000102103F0C9FD464B012246492361404846
:1041400003F09AFD444B0222444923613C4803F0AA
:1041500093FD3B4803B0BDE8F04002F021BE1427B8
:1041600012220A236E212046CDE9007501F024FCBD
:10417000344B02212046236102F076F801223849AF
:10418000204603F079FD6423322229462046CDE9FA
:10419000007501F011FC334B0222304923612046A7
:1041A00003F06AFD2A4B01222A492361204603F0CD
:1041B00063FD294A33782261244A83B111462B4694
:1041C000012711F8010F07FA03F6013300B1354357
:1041D000042BF6D1092D2BDC55B32B232382002190
:1041E00001250B4612F8010F05FA03F4013300B163
:1041F0002143042BF6D10029114808BF102103F0F8
:1042000063FD0F4803B0BDE8F04002F0C9BD0F4A9E
:1042100001262B4612F8011F06FA03F0013301B103
:104220000543042BF6D135B1092D04DC2B206CE7B6
:104230001F232382D3E71F2067E700BFA6190020B2
:10424000142600206E0012002C080020B725002044
:104250003B003200300800204B00320034080020C0
:10426000380800201F0032002DE9F0412B4C84B0AB
:1042700001250A262046122702F082FD1122284B32
:104280006E21204600923522CDE9016501F0ECFC5B
:104290001022244B062120460096234ECDE901250D
:1042A000122201F0E1FC29462046204D01F0DCFFFE
:1042B0004FF00113002105222046A5F10408C4E9AE
:1042C00004131B4903F0D8FC3168204603F0FCFCC2
:1042D0004123052216492046236103F0CDFC716875
:1042E0002046144E03F0F0FC0221204601F0BCFFF2
:1042F0005A2315F8011D20462382678203F0E4FC4F
:10430000454502D056F8043FF3E7FFF7D5FE0348D2
:1043100004B0BDE8F04102F043BD00BF1426002008
:104320007C1C00609C1C00602C170020BC25002019
:10433000B40200201C0800202DE9F04700218EB0B7
:104340001620DFF8C49203F0E1FE0021152003F0EF
:10435000DDFE0221142003F0D9FE40F2DC51944826
:1043600002F092FE9349924802F090FE92499048E2
:1043700002F08EFED9F8002072B6904B5A6162B6F8
:104380008F4D40F2EE288F4C8F4FDFF880A22E68C1
:1043900005F07AFA2378002B00F0D1803B78DB0718
:1043A00040F1CD802B68DAF800209B1A0E2B40F2EA
:1043B000C680002247F61221844803F05FF80022ED
:1043C00047F61221824803F059F8D9ED007A814B63
:1043D000B8EEE76A804A0493804EB7EEC66A02964A
:1043E0009FED715B85EE067BFCEEC77B17EE903A86
:1043F000934206D803EB4303DC00013C102C00F28F
:104400008B80774B0DF110084046764D9847D9EDDB
:10441000007A754B0022B8EEE75A2946049301272B
:104420001346029611F8010F07FA03F4013300B1A5
:104430002243042BF6D1002A00F0B08007EE902A28
:10444000F8EEE76A694FB7EEC55A3B78002B00F0EB
:104450008480F3EE004A9FED543B84EEA66A83EE1F
:10446000057BB7EEC66A27EE067BFCEEC77B17EE30
:10447000903A594A934205D803EB4303DC00013CD0
:10448000102C38D8564B404601249847D9ED007A75
:104490000022B8EEE77A134615F8011F04FA03F07C
:1044A000013301B10243042BF6D1002A79D007EE83
:1044B000902AF8EEE77A3B78002B64D067EE277AF3
:1044C0009FED4B7A67EE877AFCEEE77A17EE900A5B
:1044D0000123C9F804003C2202214648009302F05F
:1044E00081FA00284AD11921434805F04FF9434881
:1044F00003F0F6FBFEE741460AA80896FDF7FEFF2B
:10450000224608A93E4803F0A3FA089B0AA8DB68E4
:104510009847029BDB68B6E70DF110080AA80896D9
:104520004146FDF7EBFF224608A9364803F090FA12
:10453000089B0AA8DB689847029BDB6864E72B6846
:1045400022789B1B32B1B3F5FA6F3FF632AF05F01C
:104550009BF91DE74345FAD92BE79FED134B9FEDE0
:10456000246A84EE057B66EE866AB7EEE66A27EE7D
:10457000067BFCEEC77B17EE903A7AE70EB0BDE8FB
:10458000F047FFF771BEF3EE006A27EE267AC7EE1A
:10459000276AFCEEE67A17EE900A99E7F3EE006AD6
:1045A00050E7F3EE007A86E700000000D0124341A6
:1045B0009C260020A52B0000412200008026002020
:1045C0007C270020AA270020A9270020180E002001
:1045D000780E0020992B0000AAAAAA0AA0090020A0
:1045E0003D010000B7250020712D0000A619002014
:1045F0000000803D14260020400C0020080E002002
:10460000241700201C1700202C1700208C270020C6
:10461000614B00226149F0B5614D83B01E780846B8
:10462000D5ED007A4FF0010E86F00106F8EEE75A5C
:104630001E70134610F8014F0EFA03FC01330CB143
:1046400042EA0C02042BF5D1002A00F09A8007EE12
:10465000902AB8EEE77AB7EEE54A9FED4D3B002E83
:1046600077D083EE046BB3EE005AC5EE077AB7EE4F
:10467000E77A26EE077BFCEEC77B17EE903A494AB5
:10468000934209D803EB4303DB00013B102B03D912
:10469000454A126802B1136000224FF0010C134624
:1046A00011F8010F0CFA03F4013300B12243042B7B
:1046B000F6D1002A68D007EE902AF8EEE77A002EAD
:1046C00056D065EEA75ADFED397A65EEA75ABCEEF3
:1046D000E57A374C002607273023324631462046FC
:1046E00085ED017ACDE9007601F066F93246204683
:1046F0003C234121CDE9007601F05EF94FF0011332
:1047000020460121C4E9046301F0AEFD05222949D8
:10471000204603F0B1FA2968204603F0D5FA412378
:10472000052224492361204603F0A6FA6968204641
:1047300003F0CAFA204602F033FBFFF7BDFC132159
:104740001D4805F023F81D4803B0BDE8F04003F014
:10475000C7BA83EE046BDFED157A27EE277AB7EE42
:10476000C77A26EE077BFCEEC77B17EE903A86E70A
:10477000B3EE007A65EE875A85EEA77ABCEEC77A6B
:10478000A7E7B3EE007A66E7F3EE007A97E700BF9B
:1047900000000000D0124341A6190020B7250020D8
:1047A0002C170020AAAAAA0A241700200000803D86
:1047B00014260020B40200208C090020080E0020DE
:1047C0002DE9F04FBA4C8FB0BA4E4FF0010ADFF826
:1047D000F492A4F1180504F14007A4F1280820463A
:1047E00002F0D2FBD8B9103401350436A742F6D115
:1047F00098F81430002B3ED1AF4DB0490B7E012B01
:1048000040F2208172B64B6962B62E689A1B002A6C
:104810005AD1AB480FB0BDE8F04F02F0D7BC2046EC
:1048200002F0E0FB0028DED000231222A54801930D
:104830002B78B6F900B083F0010359462B7014238E
:1048400088F814A000930A2301F0B6F802219D48CD
:1048500001F00AFD12232978A9F812304FF0011354
:10486000A9F810B0C9F81430964803F02DFA95480D
:1048700002F096FAB7E7944C0026192332222578E5
:1048800088F81460002D00F0F0801F218D48CDE9DC
:10489000003601F091F82378002B00F068828B4FEE
:1048A000334601253A4612F8011F05FA03F0013399
:1048B00001B10643042BF6D1092E00F37E82002EAF
:1048C00000F07B822B2354E240F30C81EA6896428D
:1048D00004DA9A4280F20D8116462A6007EE906A49
:1048E0007B4A794CB8EEE77A94F800E0B7EEC77AE5
:1048F0009FED6D5B85EE076BFCEEC67B17EE903A85
:10490000934209D803EB4303DB00013B102B03D98F
:10491000704A126802B1136000236C484FF001091D
:1049200007461A46984617F8013F09FA02FC013279
:104930000BB148EA0C08042AF5D14346002B00F0DD
:10494000308107EE908AB8EEE77ABEF1000F00F0F2
:104950000F81F3EE005AC5EE877AB7EEE77A27EEBD
:10496000067BFCEEC77B17EE903A594A934209D872
:1049700003EB4303DB00013B102B03D9564A1268BB
:1049800002B1136072B64E6162B6D5ED007A0022B4
:104990000127B8EEE77A134610F8011F07FA03F66D
:1049A000013301B13243042BF6D1002A00F0F68026
:1049B00007EE902AF8EEE77A2378002B00F0E580E6
:1049C00027EE277ADFED467A27EE277ABCEEC77A04
:1049D0003C4C0026072785ED017A324631462046B9
:1049E0003023CDE9007600F0E7FF324620463C2335
:1049F0004121CDE9007600F0DFFF4FF001132046A2
:104A00000121C4E9046301F02FFC0522334920464B
:104A100003F032F92968204603F056F941230522B4
:104A20002E492361204603F027F96968204603F0E8
:104A30004BF9204602F0B4F921480FB0BDE8F04F21
:104A400002F0C4BB72B6D1E900308A681B68006806
:104A50001A40CB6818424FD00B7C03F003030AB115
:104A600043F0040343F008034CE0CDE900354B214B
:104A7000144800F0A1FF2378002B00F09580134F1D
:104A80002B4601263A4612F8011F06FA03F00133BD
:104A900001B10543042BF6D1092D00F39081002DBF
:104AA00000F08D812B2381E000000000D0124341F3
:104AB000D02500201C0800202C1700208026002074
:104AC0009C26002014260020A6190020B7250020CF
:104AD000AAAAAA0A1C17002024170020B40200204A
:104AE0000000803DAA6896427FF7F8AE9A423FF7F1
:104AF000F3AE1E462B60F1E60B7C03F003030AB114
:104B000043F004039A08013B0A740D2B3FF67BAE79
:104B100001A252F823F000BF89270000812700007E
:104B2000992700008127000037240000912700000A
:104B30008927000089270000912700003724000002
:104B400081270000992700008127000089270000A5
:104B50004B69013B4B6157E64B6901334B6153E6AF
:104B60004B69023B4B614FE64B6902334B614BE6AD
:104B70005FED257A27EE277AB7EEC77A27EE067B18
:104B8000FCEEC77B17EE903AEFE6F3EE006A27EEF5
:104B9000267AC7EE276ABCEEE67A19E7F3EE007ACA
:104BA0000AE7B3EE007AD0E64B23894F894E002105
:104BB0003A464FF0010C3382322373820B4612F8CF
:104BC000010F0CFA03F5013300B12943042BF6D190
:104BD00000298048804D08BF1021DFF81C8203F0B7
:104BE00073F87C4802F0DCF8D5ED007A00224FF033
:104BF000010CB8EEE77A3946134688F800C011F880
:104C0000010F0CFA03FE013308B142EA0E02042B35
:104C1000F5D1002A00F0A88007EE902AF8EEE77A96
:104C20002378002B00F0978027EE277ADFED6B7A50
:104C300027EE277ABCEEC77A4FF000094FF0070A3B
:104C400085ED017A30234A4649466248CDE900A9FC
:104C500000F0B2FE4A463C2341215E48CDE900A95E
:104C600000F0AAFE4FF0011301215A487361C6F803
:104C7000109001F0F9FA05225949564802F0FCFF5C
:104C80002968544803F020F8412305225449336130
:104C9000504802F0F1FF69684E4803F015F84D489E
:104CA00002F07EF84F4B1B78002B7FF4A6ADD5EDBC
:104CB000007A01264C4AB8EEE75ADFF840C1049268
:104CC0001A46CDF808C017F8011F06FA02F00132A3
:104CD00001B10343042AF6D1002B72D007EE903ABB
:104CE000F8EEE77A2378B7EEC55A002B54D0F3EEEE
:104CF000004A9FED353B84EEA77A83EE056BB7EE55
:104D0000C77A26EE077BFCEEC77B17EE903A374A50
:104D1000934205D803EB4303DC00013C102C07D879
:104D2000334B04AE30469847002388F8003064E5E2
:104D300004AE0AA8CDF820C03146FDF7DFFB2246BD
:104D400008A92C4802F084FE089B0AA8DB68984753
:104D5000029BDB68E6E7F3EE006A27EE267AC7EEF1
:104D6000276ABCEEE67A67E7F3EE007A58E74B2352
:104D7000174F184E0021164A4FF0010C3382322390
:104D800073820B4612F8010F0CFA03F5013300B1E0
:104D90002943042BF6D11BE79FED0B4B9FED0F7AB8
:104DA00084EE056B67EE877AB7EEE77A26EE077B2F
:104DB000FCEEC77B17EE903AA9E71F23D9E71F2324
:104DC000F4E6F3EE007A8DE700000000D0124341D4
:104DD000B7250020142600202C1700200000803D5D
:104DE000B402002028270020712D0000AAAAAA0AD8
:104DF0003D01000024170020A5270020A009002065
:104E00000268F0B513688DB00C46F8219847484BFE
:104E10001B780BB1012C01D00DB0F0BD454A04F157
:104E2000AA3413680133A4FB0314A40904EB44045B
:104E3000A3EB44141460002CEED13F4D2B78002BD3
:104E4000EAD03E4802F086FEFA213D4802F0F2FC2C
:104E5000FA213C4802F0EEFC3B4B3C4F4FF0010C7A
:104E600093ED005A3A4BB8EEC55A3A4A029323469C
:104E7000009712F8011F0CFA03F0013301B104434B
:104E8000042BF6D1002C4CD007EE904AF8EEE77ACE
:104E9000314BB7EEC55A1B78002B31D0F3EE004AE8
:104EA0009FED213B84EEA77A83EE056BB7EEC77AC0
:104EB00026EE077BFCEEC77B17EE903A274A93421B
:104EC0001BD803EB4303DC00013C102C15D902AEC8
:104ED00008A806973146FDF711FB224606A9174898
:104EE00002F0B6FD069B08A8DB689847009BDB68CC
:104EF0003046984700232B708EE7194B02AEF7E738
:104F00009FED094B9FED177A84EE056B67EE877A6C
:104F1000B7EEE77A26EE077BFCEEC77B17EE903AFA
:104F2000CCE7F3EE007AB3E700000000D012434173
:104F30002827002010260020A52700202417002065
:104F4000780E0020180E00202C170020A009002049
:104F5000712D0000B7250020A6190020AAAAAA0AD0
:104F60003D0100000000803D01210148FFF748BFDE
:104F7000180E0020F0B56A4D85B02C78002C59D160
:104F8000FA21684802F056FCFA216748102702F01F
:104F900051FC2E78012E14BF012300232B704FF0FB
:104FA0000A03624D00F0A180122206212846012644
:104FB000CDE9007400F000FD0A2300935C4BCDE9BD
:104FC0000176072728461222062100F04DFE2246D0
:104FD000214628463023CDE9007400F0EDFC22463E
:104FE00028463C234121CDE9007400F0E5FC4FF058
:104FF000011331462846C5E904434E4C01F034F90B
:1050000005224D49284602F037FE2168284602F065
:105010005BFE4123052248492B61284602F02CFE05
:105020006168284602F050FE284605B0BDE8F04011
:1050300001F0B6BEFC213B4802F0FCFBFC213A48E3
:10504000102702F0F7FB2E78384C012E14BF0123F5
:1050500000232B704FF000054FF00A0352D01222AC
:10506000062120460126CDE9007500F0A5FC0A23A3
:1050700000932F4BCDE90176072720461222062107
:1050800000F0F2FD2A46294620463023CDE900757E
:1050900000F092FC2A4620463C234121CDE90075D0
:1050A00000F08AFC4FF0011331462046C4E9045356
:1050B000204D01F0D9F805221F49204602F0DCFD01
:1050C0002968204602F000FE412305221A49236187
:1050D000204602F0D1FD6968204602F0F5FD204629
:1050E00005B0BDE8F04001F05BBE12220621284663
:1050F000CDE9007400F060FC0A23CDE9017600934D
:105100000E4B5EE7122206212046CDE9007500F025
:1051100053FC0A23CDE901760093084BACE700BFAE
:1051200028270020180E0020780E002014260020CA
:10513000BC1C00602C170020B40200209C1C0060E6
:10514000F821014802F076BB780E002043682DE973
:10515000F04FD3E90041814D4FF0B80A22684FF07B
:10516000020822EA01027E492260AA6911407D4AB2
:105170000A43AA6190F810E07B4A03EB0E0603EBAA
:105180008E0E317C02EB01118968C1F800A090F805
:1051900011C003EB0C0503EB8C0C95F8201002EB0F
:1051A00001118968C1F800A0817C03EB010903EBC0
:1051B000810199F830B002EB0B1BDBF808B0CBF89B
:1051C00000A0D4F800A05F684AEA070AC4F800A06B
:1051D000347CDEF814E002EB04146468C4F800E0E8
:1051E00095F82040DCF824C002EB04146468C4F88D
:1051F00000C0496B99F8304002EB0412526811600C
:10520000DA6B99F838101160DA69317EDB6A116067
:1052100095F828201A600F220368C3F810809A6559
:10522000C27C002A31D072B6C37CDC0708D54FF0AF
:10523000E0214469D1F8802122408262C1F88021B6
:10524000990708D54FF0E0218469D1F884212240E4
:10525000C262C1F884215A0708D54FF0E021C46921
:10526000D1F8882122400263C1F888211F0708D5A0
:105270004FF0E021046AD1F88C2122404263C1F84A
:105280008C21DE0655D462B60368384C8268A2428F
:1052900059D0324A846092693549C2F30116C2F38B
:1052A0008262344D51F826100132B1FBF2F2AA426B
:1052B00031D80022C260002403211C6107245962F6
:1052C00001211A641C661961C37C13B3DD0704D580
:1052D000816A4FF0E022C2F800119C0704D5C16A30
:1052E0004FF0E022C2F80411590704D5016B4FF0CA
:1052F000E022C2F808111A0704D5416B4FF0E022F2
:10530000C2F80C11DB0604D5826B4FF0E023C3F822
:105310001021BDE8F08F1849A1FB0251090DB2FB25
:10532000F1F2A24288BF0131B1F5817F0DD3134A5A
:10533000C0E74FF0E022416AD2F890310B4083631E
:10534000C2F890319FE7C268B5E70229B1D90239A6
:105350004C08220242EA04420A43ABE700C00F4075
:10536000CFFFFFE310000008C009002000093D0046
:10537000B0090020FF083D0083DE1B43FF7F7F0054
:105380000020704790F8A32090F8A200101A7047F0
:1053900090F8A23090F8A3209A4205D95A1C0344F1
:1053A00080F8A220987E70474FF0FF30704700BF12
:1053B00090F8A23090F8A3209A4202D91844807E37
:1053C00070474FF0FF307047704700BF0346B0F89A
:1053D000300178B193F82F21882A03D901220020C7
:1053E0005A60704702F1010C01201A4483F82FC162
:1053F00082F8A510704700BF38B5B0F830410CB93D
:10540000204638BD90F82F310546C3F18904A242E9
:105410000DD8144605F1A5002246184402F03AFFC3
:1054200095F82F312046234485F82F3138BD0122CD
:105430004260EFE72DE9F04FD0F814A01524017E6B
:105440008146437E83B00AEB0111384A0AEB03130D
:10545000374F097A93F8283002EB01150901E86803
:1054600052F8018002EB0311D5F804B01B01CE689D
:10547000D558CBF80040C8F88400D8F804304A6802
:1054800003432C490192C8F804301460C5F88460C5
:105490006B6833436B60284B4C683A68A3FB02325D
:1054A000920C02EB820252004B681B1B9A42FBD803
:1054B0004FF0090C1F4ADFF880E0D8F808300342AB
:1054C00002D0AB6833422FD1C5F888605468396880
:1054D000AEFB0131890C01EB810153681B1B994222
:1054E000FBD8C5F8846054683968AEFB0131890C7B
:1054F00001EB810153681B1B9942FBD8BCF1010CE5
:10550000DBD1604699F81830019A0AEB0313DB6887
:10551000CBF8003099F819300AEB031ADAF82C307E
:10552000136003B0BDE8F08F0120EBE7C009002055
:10553000040E0020001000E083DE1B430E4A10B56D
:105540001168046905E0DB0107D413685B1A102BAE
:1055500008D8636913F0007FF5D14FF4FE430120B2
:10556000636110BDFFF766FF0028FAD04FF4FE43D9
:1055700001206361F5E700BF7C2700202DE9F0479B
:1055800090F82FA10569BAF1000F4FD081468846E7
:10559000FFF7D4FF002849D0374E0024376818E0C1
:1055A0006B69190551D4DA0455D4580559D49904B6
:1055B00041D43268D21B322A3DD8544507D9EA6D0E
:1055C000520704D19B0555D4B8F1000F52D004F016
:1055D0005BF95445E4D8EA6D500702F00703DFD4C5
:1055E00013E099F8A5200133022442F48062042BD1
:1055F0002A661ED08A4503F1010309EB01020ED988
:1056000092F8A520042B2A66CAD00121002CE8D0EC
:105610002146013301348A4509EB0102F0D8B8F183
:10562000000FBDD04FF400732B66B9E70420BDE82E
:10563000F0870124B4E72B694FF40072042043F48F
:1056400040732B612A66BDE8F0872B69042043F480
:1056500040732B61EBE72B69052043F440732B610A
:10566000E5E72B694FF40072022043F440732B618D
:105670002A66DCE70020DAE77C270020F8B5066917
:105680000446D6F8145115F4706301D0C6F81431ED
:10569000A8070BD5D6F8702111043DD500230121B0
:1056A00084F8A230234484F8A3109A76EA0710D530
:1056B00094F83071F7B194F82E7194F82F31BB4201
:1056C00026D97B1C274484F82E3197F8A530C6F8DC
:1056D0006031AB050DD594F8A30018B1D4F83C3176
:1056E00003B198470023A4F8A230A4F82E3184F81F
:1056F0003031F8BDD4F8383103B19847002384F82D
:105700002E31012384F8303194F82F31BB42D8D8A0
:105710000023C6F86031DCE794F8A330872BC5D8A6
:10572000591CC9B2BEE700BF0148FFF7A7BF00BFC1
:10573000D80E00200148FFF7A1BF00BF18100020BD
:105740000148FFF79BBF00BF5811002010B4144C54
:1057500000220369A1421A6114D8124C0120124997
:105760004FF430329C6458629962DA629C6C00207B
:105770004FF0011101221C6518625DF8044B996518
:105780001A6170470948814207D9094C09480A49FA
:105790009C645A629862D962E8E7084C0848F6E7C8
:1057A0007F1A06003B372819B80B05053F420F004A
:1057B0000A09070460090101007F05001C1A120C88
:1057C000100E0202704700BF704700BF10B404689B
:1057D0002469A4465DF8044B604700BF30B40468F8
:1057E000BDF808500295A46BA44630BC604700BFCA
:1057F00030B40468BDF808500295E46BA44630BC90
:10580000604700BF30B4BDF9085004680295BDF888
:105810000C500395246CA44630BC604730B5002280
:1058200083B00468B0F90E50019111460095B0F9AB
:105830000C30246CA04703B030BD00BF704700BFE0
:1058400001F003038376CB0705D40289B0F90A304F
:105850008281C38170474289B0F908308281C38157
:10586000704700BF2DE9F0411C460B46016884B02B
:10587000114E05464F69BDF82880B74210D1013C52
:10588000CDF804802846144424B200948C6A19464A
:10589000A0472B68DB6AB34209D104B0BDE8F081B0
:1058A000CDE90232B8472968DDE90232E7E7284648
:1058B00004B0BDE8F0411847F93300002DE9F0438A
:1058C000056885B0124E04466F699946BDF8308070
:1058D000B74210D109F1FF33CDF804800092204681
:1058E0000B44AD6A1BB2A8472368DB6AB34209D1F7
:1058F00005B0BDE8F083CDE90212B8472568DDE9BF
:105900000212E7E7204605B0BDE8F043184700BFA4
:10591000F93300002DE9F043994287B00546BDF9FF
:105920003840BDF83C6022D0A24212D00768DFF8B0
:105930008480D7F81490C14533D12846CDE900467C
:10594000BC6AA0472B68DB6A434525D107B0BDE898
:10595000F08399421CDC0E9601332C6828465B1AB2
:10596000E46B1BB2A44607B0BDE8F0436047A24217
:1059700002DD134622461C460E96631C2C68284600
:105980009B1AA46B1BB2A44607B0BDE8F043604766
:10599000084619460346DEE7284607B0BDE8F0434F
:1059A0001847CDE904230391C8472F680399DDE91F
:1059B0000423C2E7F9330000D0F800C02DE9F04F0E
:1059C00090461F461F4A83B0DCF8143005460C464B
:1059D000BDF930909342BDF834A029D12744A742A5
:1059E0001EDDDFF864B00AE00134CDF800A0DCF879
:1059F000386024B2B047D5F800C0BC4210DADCF8F9
:105A000020604B46424621465E452846ECD0013494
:105A1000CDF800A0B047D5F800C024B2BC42EEDB00
:105A2000DCF82C30074A934206D103B0BDE8F08F72
:105A30009847D5F800C0D1E7284603B0BDE8F04F3D
:105A4000184700BFF93300000D3400002DE9F04F76
:105A50001D4603681646DFF8BC905A6985B00446B7
:105A60004A45BDF93880BDF83C7043D1D3F824B025
:105A70003246DFF8A4A020460097D345039108BF23
:105A8000D3F83CB02B46D847236808F1FF3203997E
:105A9000D3F824B032440097D34512B234D1D3F8AE
:105AA0003CA0204603912B46D047039923683246F9
:105AB000DFF868A02046D3F820B0013D0097D34519
:105AC000039108BFD3F838B04346D84703992268FA
:105AD00043460D44204629B2156A0097554508BF34
:105AE000956B3246A8472368DB6A4B4507D105B062
:105AF000BDE8F08F0391904723680399B6E72046ED
:105B000005B0BDE8F04F184703912B462046D84713
:105B10000399CBE7F9330000213400000D34000075
:105B20002DE9F04F2DED028B85B098460C461646B8
:105B3000BDF940C0A8EB010A0746BDF84490ACEBA4
:105B40000203BAF1000F83EAE375B8BFCAF1000A95
:105B5000A5EBE3755545009566DD41462046224696
:105B600043463446E04606468C46444508DD154625
:105B7000304621461A46664644462B4684468846A9
:105B80009B1AA8EB0402002B15B292B2B8BF5B427D
:105B9000002D0192B8BF0135B4454FEA65053ADDE5
:105BA000012202929BB208EE107A03931EE018EED7
:105BB000101A204F18EE100AD1F800C03146DCF858
:105BC00018B0BB452ED1DCF810B0D847039B013488
:105BD000029AEB1A0199B21824B21DB29BB2002DA1
:105BE0000B4401DA16B21DB2A04516DB009B22461B
:105BF000214653454B46DADC18EE103A0D4F32463B
:105C000018EE100AD3F800C04B46DCF818B0BB45BC
:105C1000D9D0D847DAE7444508DD05B0BDEC028BA2
:105C2000BDE8F08FD847D1E763469EE74FF0FF32DB
:105C30000292B7E7FD3300004281C281084A018128
:105C400081814FF0FF318261064A10B40024026066
:105C5000446004770462C0E904415DF8044B704776
:105C600001010001540800202DE9F04F87B0824661
:105C700000681746BDF9406088460593F31D354A14
:105C8000BDF9444048BF06F10E03BDF848B0DB1033
:105C900003934369934253D1002C45DD3C44844631
:105CA000A3B2049300231D460293002E31DD059A12
:105CB000002302990A4401920AE0EDB204EB0801C4
:105CC00015F0800F09B213D1013423B2B34220D0B2
:105CD00013F0070F4FEAE3029CB24FEA4505ECD1FF
:105CE000019B04EB08019D5C09B215F0800FEBD01D
:105CF000DCF818905B4618483A4681451BD10134C0
:105D0000DCF810905046C847DAF800C023B2B3421E
:105D1000DED10137DDE902321344049A0293BBB2AB
:105D20003FB29A42C1D16046C36A0A4A93420CD13B
:105D300007B0BDE8F08F5046C847DAF800C0C3E7A7
:105D400050469847DAF80000A6E7504607B0BDE88D
:105D5000F04F1847F9330000FD3300002DE9F04FF4
:105D60002DED028B91B091468246BDF870200491D2
:105D70009DF8781005920E91026A9DF87C10BDF88E
:105D800074B00291002A00F0B380117AD2E90024A5
:105D90005B1A02990392DBB20E9A114304EBC30221
:105DA00034F8337092F905000129D37892F8028013
:105DB00092F906400A9308905AD800230B9309934E
:105DC000A34BDAF8002019460F9353698B4240F039
:105DD0007D810A9B002B78D01FFA89F3D346DDF82A
:105DE00038900C9323440D9300231D46079306938C
:105DF000B8F1000F61D006990B9B029CCB180C9850
:105E0000079E03FB040300241BB208EE103A0D9B0F
:105E10000B441BB208EE903A05E001346D00E4B289
:105E2000EDB2A04545D9334601365907F6B203D144
:105E30007B1C0399CD5D9FB22B06EED5B9F1010F06
:105E40001BD1029B012B18D1089B58460499D2F80C
:105E500018A059187F4B21449A45059B08BFD2F8DA
:105E600010A009B218EE902AD047DBF80020D4E742
:105E700003B2099323B20B93A2E7099BD2F81CA0AB
:105E80001919DFF8D8E1049BBDF90800F24501FBC0
:105E900009310FFA89F3009009B220D105980190D9
:105EA0005846D2F840A018EE102AD047DBF8002060
:105EB000B3E7079B4344DBB20793069B0A99013380
:105EC000DBB29942069393D8DA46D36A0F9A93428B
:105ED00040F0F58011B0BDEC028BBDE8F08F059A63
:105EE0005846019218EE102AD047DBF8002094E7BC
:105EF000B0F90C2004998A42ECDDB0F90E204A4535
:105F0000E8DD06220E9812FB0012002AE2DD029A5A
:105F100009EBC202002ADDDD9AF81C20012A03D019
:105F2000AF2B01D90133DBB2494ADAF80000114640
:105F30000F9242698A4240F0F080BDF8102003EBD6
:105F40008303CDF80C90D14611460B92424ACDF80E
:105F500010B0D3180A46DDF8148008934B1D0E9933
:105F60009BB2029F8B4609938BB20A930346CDE9FD
:105F70000622089A08240025CA4612F8016B0892E6
:105F8000BDF91C2008EE102A0FFA8BF208EE902AB9
:105F90001CE0BBF1010F039A36D1012F34D1D3F8A5
:105FA0001890AA182B4812B2BDF918108145504616
:105FB00008BFD3F810904346C847DAF80030013CD8
:105FC0000135760814F0FF046DB249D0F007E0D433
:105FD00004988045F3D0BBF1010F039A2AD1012F19
:105FE00028D1AA18D3F81890BDF918100FFA82FC1E
:105FF000184A91456FD1D3F8109062460346504637
:10600000C847DAF80030DAE7D3F81C9005FB07221E
:10601000124839B212B28145CDE9001801D1D3F846
:10602000409018EE903A18EE101A5046C847DAF829
:106030000030C4E7D3F81C9005FB0722074839B2AB
:1060400012B2814500914DD104990191E7E700BF5B
:10605000F9330000FD3300001C030020353400003C
:10606000079AD1460A9806990244013192B289B240
:106070000792099A06918A427FF47BAF1846059BE6
:10608000DDE9039B5B4515D00E9B012B2DD1029BB7
:10609000012B2AD1046A4A46234BCDF800B09C421A
:1060A000BDF924104FF0080308BF846B5046A04789
:1060B000DAF80000C36A0F9A93423FF40BAF5046E0
:1060C00011B0BDEC028BBDE8F04F18475046984721
:1060D000DAF800207DE6049B62465046C847DAF8AD
:1060E00000306CE7049B01939BE70A9BC46903EBB8
:1060F00083010B9B029A0B440C4DD2001946AC4213
:10610000BDF9383009B2CDE9002B4A4608BF046C0E
:106110005046A047DAF80000CCE75046039390477A
:10612000DAF80000039B08E70D3400003534000066
:10613000036AF0B5074685B0002B3AD00A292BD068
:106140000D2933D01A7A914230D39C7A8C422DD3C8
:106150008A1A5C68D2B204EBC204E578A278A5B1D1
:106160009AB1C57E002D63D1067E437EB0F91050F2
:10617000B0F912203846CDE902630B462946FD8A64
:106180000195BD8A0095FFF7E9FD21793B8A3A7EAA
:1061900001FB02333B8209E04FF0000C428A417E52
:1061A000A0F810C01B7B01FB03234382012005B034
:1061B000F0BD0A291ED00D29F8D0C27EB0F91040DA
:1061C0000ABBB0F91220067E457E03950B46029667
:1061D0002146FC8A38460194BC8A0094FFF7BEFD34
:1061E0003B7E3A8A012003EB430302EB43033B82ED
:1061F00005B0F0BD428A417E038202EBC1034382B7
:10620000012005B0F0BD067E0622B0F90C5012FB4D
:106210000642AA4208DD428A1C46457E038202EB02
:10622000C50212B24282D0E7B0F91220457ECCE717
:1062300094F90550067E2A44B0F91050B0F90CC00C
:1062400006FB0252624503DC437EB0F9122091E75F
:106250000025428A058293F80CC0437E0CFB032282
:1062600012B2428286E700BF012938BF01210176C0
:106270004176704730B482B00C4602AB03E90600A9
:10628000C37C002B30D072B6C37CDA0708D54FF040
:10629000E0214569D1F880212A408262C1F880213D
:1062A0009D0708D54FF0E0218569D1F884212A4067
:1062B000C262C1F88421590708D54FF0E021C569B1
:1062C000D1F888212A400263C1F888211A0708D52D
:1062D0004FF0E021056AD1F88C212A404263C1F8D1
:1062E0008C21DB062FD462B683689C4235D0224BCA
:1062F00084609B69214AC3F30111C3F3826352F89E
:1063000021100133B1FBF3F2CCB1944227D8B2FB98
:10631000F4F3B2FBF3F294422CD3B3F5817F20D394
:10632000174CC460036803220020019918615A6267
:1063300001221C6419661A6102B030BC7047994290
:10634000EFD3531CE9E74FF0E022416AD2F89031D5
:106350000B408363C2F89031C5E7C468E2E70024CC
:10636000DFE7022BFBD9023B5A08140244EA02443D
:106370001C43D6E71A46E4E700C00F40B0090020EE
:10638000FF7F7F00002905DBB0F90CC08C4501DDE3
:10639000002A00DA7047B0F90EC09445FADD10B457
:1063A00090F81AC0BCF1020F0DD0BCF1030F58D009
:1063B000BCF1010F4CD0012B38D0022B24D07BB183
:1063C0005DF8044B7047B0F808C00CF1FF3CACEB33
:1063D000010C41898A1A0FFA8CF1013A12B2EAE7EC
:1063E000002A1346B0F808C0B8BFD31DC46A02F033
:1063F00007020120DB1000FA02F213FB0C13E15C30
:1064000021EA0202E254DBE7002A13460489B8BFFE
:10641000D31DC06A02F00702DB1013FB0413012135
:10642000C45C01FA02F26240C254C9E7002A134672
:10643000B0F808C002F00704B8BFD31DC06A01223B
:10644000DB10A24013FB0C13C15C0A43C254B7E734
:10645000B0F808C0ACEB020C0A460CF1FF3109B2EF
:10646000A9E7B0F80AC00CF1FF3CACEB010C1146F7
:106470000FFA8CF29FE700BF002930B5BDF80C4041
:1064800002DA0B4400211BB2B0F908C05D188E4639
:10649000654502DDACEB01010BB2002B0FDDC16ADB
:1064A000D01002F007021CFB00EC012000FA02F2FF
:1064B00084426144D2B219D0022C0DD004B130BD57
:1064C000D24311FA83F3D2B211F8010B1040994272
:1064D00001F8010CF8D130BD11FA83F311F8010B6A
:1064E00050408B4201F8010CF8D130BD11FA83F312
:1064F00011F8010B1043994201F8010CF8D130BD9D
:106500002DE9F041B0F908E0BDF818508E452DDDB9
:10651000002A2DDB9446B0F90A409C44A44501DDD5
:10652000A41A23B2002B21DDC2F3C404C66A12F000
:106530000702DBB21EFB041406EB040136D0C2F1E5
:10654000080CDFF818815FFA8CFC634518F80C70B2
:1065500018D2ACEB03084FF0FF0E012D4EFA08FEE7
:1065600007EA0E0771D0022D49D08DB1BDE8F08148
:1065700013440022B0F90A401BB294469C44A4453F
:10658000D0DDCDE7012D60D0022D38D0002D3BD1DC
:1065900016F804E02EEA070E634506F804E0B0F9A9
:1065A0000840E3D3083A21441344DBB2072B16D941
:1065B000022D35D0B5F1000C1A4618BF4FF0010C72
:1065C000CCF1000C5FFA8CFC083A81F800C0B0F9FD
:1065D0000840D2B22144072AF6D803F00703002B63
:1065E000C4D01E4A012D13441B7A33D0022D28D06B
:1065F000002DBBD10A7822EA03030B70B6E716F828
:1066000004E087EA0E0EC7E7083A71441344DBB290
:10661000072BCFD8002BA9D0984498F80830E5E78D
:106620001A460C78083AE443D2B20C70072AB0F943
:1066300008402144F5D813F0070397D0074A1344C4
:106640001B7A0A7853400B7090E716F804E047EA8B
:106650000E0EA1E70A7813430B7087E7D41D006084
:106660009446827E022A10B4BDF8044028D0032A42
:1066700021D0012A0FD0BCF1000F09DBB0F90A20AC
:10668000624505DD019462465DF8044BFFF7F4BEF8
:106690005DF8044B70470289A2EB0C02013A0FFA35
:1066A00082FCBCF1000FF3DB0A46019461465DF801
:1066B000044BFFF725BF19444289521A11B2F0E783
:1066C00042891944A2EB0C02013A0FFA82FC0289BA
:1066D000521A11B2CFE700BF9446827E022A10B44C
:1066E000BDF8044027D0032A14D0012A07D000297E
:1066F0000DDB019462465DF8044BFFF701BF9C443B
:1067000002890029A2EB0C020FFA82FC08DA5DF87C
:10671000044B70474289521A013A11B20029F6DB44
:10672000B0F90A208A42F2DD0A46019461465DF81A
:10673000044BFFF7A1BE02899C44521A013A11B2E0
:106740004289A2EB0C020FFA82FCD0E770B5044636
:106750001D469DF91060FFF76FFA0F4B2360002371
:106760006362B5B1059A00230C480721A265069A19
:10677000E362FF23E2654FF6FF7284F83760A5629B
:1067800084F83330A28684F83630C4E919012046F3
:1067900070BD034DE6E700BFC008002000093D00C2
:1067A000D80E002010B50446C06A08B103F0F8F80E
:1067B000204610BDF8B5836A04460D46CBB190F86B
:1067C000302001260021B24083F8306183F82F6128
:1067D00083F8A520806A03681B689847A06A294649
:1067E00003681B6898473146A06ABDE8F840FEF789
:1067F000C5BE026C006D1368616A23EA0003136072
:1068000039B10A685566D36D13F4F81FFBD0536F86
:10681000F8BDE36B08208021A66B32680D42A76C9F
:106820004FEA510114BF3A43BA43013832601A6843
:10683000E76C42EA07021A601A68E76C22EA07026C
:106840001A60EAD1F8BD00BF38B50446806A0D462B
:1068500078B1A16DFEF77AFFA5F15A012046C9B2C1
:10686000FFF7A8FFA06A98B1E16DBDE83840FEF7D8
:106870006DBF606A28B104F1640393E80600FFF776
:10688000F9FC626C616D136823EA01031360E3E7AE
:10689000616C606D0B68626A03430B6022B3D37C4A
:1068A00013B3DD0704D5906A4FF0E021C1F8000171
:1068B0009C0704D5D06A4FF0E021C1F804015807C5
:1068C00004D5106B4FF0E021C1F80801190704D579
:1068D000506B4FF0E021C1F80C01DB0604D5926B40
:1068E0004FF0E023C3F8102138BD00BF836A2DE9C3
:1068F000F04104460D469046002B3BD090F83020E6
:1069000001260021520083F8306183F82F6183F85B
:10691000A520806A03681B689847B8F1000F23D050
:1069200005EB0807B046A06A013615F8011B03689D
:10693000B6B21B689847AF4216D0882EF3D101211A
:10694000A06AFEF71BFE94F83020A36A00215200D3
:10695000012683F8308183F82F8183F8A520A06A6F
:1069600003681B689847DEE7A06A0121BDE8F04193
:10697000FEF704BE026C016D136823EA0103136085
:10698000B8F1000F0DD0476AA84415F8016B57B154
:1069900039684E66CB6D13F4F81FFBD04B6F45453D
:1069A000F3D1BDE8F081E36B4FF0080E4FF0800C9F
:1069B000A16B086816EA0C0FA26C4FEA5C0C14BFBE
:1069C00010439043BEF1010E08601868E26C40EA83
:1069D000020018601868E26C20EA02001860E8D132
:1069E000DDE700BF2DE9F041044686B0C06A1E46CF
:1069F0000F4615469DF83080B4F90A30002800F0A3
:106A00005D81DA1D48BF03F10E02B4F90830D210DF
:106A100003FB02F2002103F08DFAB4F90A002028EA
:106A200000F3BD80B0F120024FF0010CB94B48BF1C
:106A3000A0F11F02B4F90800B0F173014FEA62023D
:106A400048BFA0F172012020CDE9010C732049104C
:106A500000902046FFF708F9A06A84F831700028FA
:106A600000F0BC80002D40F01D81B4F90A30202BCD
:106A70000CBF3C253D2584F83050B8F1000F40F0A4
:106A80001881002E00F0D88094F93700002818DB18
:106A90000121C0B201F03AFB012194F8370001F066
:106AA000F9FA012001F0A2FA002194F8370001F070
:106AB000F1FA0A2001F09AFA012194F8370001F066
:106AC000E9FAA06A002840F0B780606A28B104F1B2
:106AD000640393E80600FFF7CDFB626C616D1368F9
:106AE00023EA0103136004228B492046FFF7FEFED0
:106AF000618920460139C9B2FFF75CFE874904224B
:106B00002046FFF7F3FE94F931302046012B0CBFED
:106B100010211421FFF74EFE042281492046FFF781
:106B2000E5FEA3687F4A8F21934284F8601008D065
:106B300002F50012934200F0D4807B4A934200F0A9
:106B4000DA800225DA212046FFF734FE2946204666
:106B5000FFF730FE81212046FFF72CFE94F86010ED
:106B60002046FFF727FED9212046FFF723FE94F9A0
:106B700031302046012B0CBF2221F121FFF71AFEF4
:106B8000204606226949FFF7B1FEA06A002857D0C7
:106B9000E16DFEF7DBFD012006B0BDE8F081403875
:106BA0004FF0010E624B00B20028B8BF0130421016
:106BB000B4F90800B0F1520148BFA0F151014020E2
:106BC000CDE9010E5220491000902046FFF74CF805
:106BD000A06A84F8317000287FF444AF012194F852
:106BE000350001F093FA012194F8360001F08EFA95
:106BF000504D94F9352094F936301101606A05EB57
:106C000002126958D268216422651A0105EB031348
:106C1000AA58DB686264636511680B43136000283F
:106C200000F08A80B8F1000F6FD1002E7FF42CAFF6
:106C3000A06A00283FF449AFA16DFEF787FD52E737
